:020000040800F2
:1000000000500020DDA4000889A50008B18E00087A
:1000100089A5000889A5000889A50008000000003E
:1000200000000000000000000000000089A500089A
:1000300089A500080000000089A50008958E000829
:1000400089A5000889A5000889A5000889A50008D8
:1000500089A5000889A5000889A5000889A50008C8
:1000600089A50008A58E000889A5000889A50008B3
:1000700089A5000889A50008FD8D000889A500084C
:1000800089A5000889A5000889A5000889A5000898
:1000900089A5000889A5000889A5000889A5000888
:1000A00089A50008C58D000889A50008D58D000820
:1000B000B58D0008A58D0008958D0008458E0008B7
:1000C0003D8E0008418E0008398E000889A5000881
:1000D00089A50008F18D0008E58D000889A50008B4
:1000E000AB8E000889A5000889A500080000000063
:1000F0000000000000000000000000000000000000
:0C01000000000000000000005FF808F1A3
:100110002DE9F04F664B674D9DB02B6000236B605F
:1001200006F0E7FA18B907F04DF906F00BFC06F0F7
:10013000ABFF614B614C1A78614F42F001021A70BB
:100140000022089209920A924FF4E0120B92226860
:10015000B97B42F480322260A26942F01002A261AF
:10016000236803F400330993089B01330893099B28
:100170001BB9089BB3F5A06FF2D122684F4B12F464
:10018000003201D0022315E0186840F00100186029
:100190000892236803F002030993089B0133089334
:1001A000099B1BB9089BB3F5A06FF2D12368980790
:1001B00034D501230A93434B434E1A6842F0100290
:1001C0001A601A6822F003021A601A6842F00202EA
:1001D0001A606368394A636063686360636843F404
:1001E00080636360394B1868043B20F070405860AE
:1001F00037480660666826F47C1666605E6846F0DE
:1002000000465E60DE6826F40046DE604FF4E016CD
:100210000B960A9E9846012E01D118E0FEE7022EA9
:1002200019D169B10B9BB3F5801F02D14FF4A01314
:1002300005E00B9BB3F5E01F02D14FF400130B93C5
:1002400062680B9B134343F48033636003E053689D
:1002500043F460135360236843F080732360226883
:10026000164B9201FBD55A6822F003025A605A6875
:1002700042F002025A606368104A03F00C03082B34
:10028000F9D15168134B01F00C01042903D008295E
:1002900004D00D4A00E002681A6027E051685668F1
:1002A000C1F38341F60301F1020117D40A4A1BE0AE
:1002B000D56A0008A8000020B818002000100240ED
:1002C000600600200020024000127A000410014065
:1002D000000000203800002000093D00526812F4A0
:1002E000003F026818BF52085143196062687449A0
:1002F000C2F30312885C1A681CAEC2401A60D8F8B8
:100300000830DFF8F0A113F4004F6E4B14BF022148
:10031000012119706C4B6D494FF0000BD960A16938
:10032000504641F00101A161616A0DF17009A960B7
:10033000616A41F080716162A16941F01C01A161B3
:100340004FF6FF7126F82C1D3146049203938DF869
:1003500046B004F0E7FF5E48314604F0E3FF5D4835
:10036000314604F0DFFF10218DF8321002218DF8A4
:1003700033104FF4007129F8401D5046CAF8101090
:10038000494604F0CFFF5449486840F00070486087
:10039000304604F043F911995048C5F810B0B1FB4C
:1003A000F0F1E9604E49DFF850C1C1F804B0049A99
:1003B0004FF47A71B2FBF1F24A49039B013A4A6069
:1003C000F02283F823200723C1F808B00B60BB6834
:1003D000DFF814B1B646CBF80030BCE80F00AEE849
:1003E0000F009CE80300A3698EE8030043F01003AC
:1003F000A361A36918AA43F01003A361A36943F0A2
:100400001003A3614FF48043C8F810304FF4005339
:10041000C8F810304FF40043C8F8103012AB53F84E
:10042000040C19460492039304F07CFF039B049A86
:1004300008339342F3D12C4803681B0762D597F821
:100440001E31012B5ED8294B93F81F21AB6813F0A6
:10045000805A00F01C830023002B53D0244B4FF410
:10046000005B1868C8F814B031461190214804F0B8
:1004700059FF204908230B613C2004F0EAFDC8F82D
:1004800010B04FF0000B97F81F319B4536DA194832
:100490004FF400420823C8F81020436178200492EA
:1004A000039304F0CBFD049A039B1249C8F814206F
:1004B00078200B6104F0C2FD0BF1010BE3E700BFF4
:1004C0001CD40008CC18002000ED00E00005FA055F
:1004D000000C0140001001400000014040420F00AC
:1004E000B800002010E000E0AC040020600600200E
:1004F00044D40008000801402CD40008BAF1000FD1
:1005000000F0CB82642004F0A4FDBD480021A022AD
:100510000BF0FFFCE36943F00703E361A36943F4D5
:10052000006343F00C03A3610023B64C4FF0000AB4
:1005300004F1180203F802A001330E2BF5D1FF23BA
:10054000DFF8FCB284F8263084F8273084F82830AD
:1005500084F8293051460223182204F1340084F82B
:100560003030C4F82CB00BF0D4FC97F80580012390
:1005700084F840304846ABF5B3735146142284F8F2
:100580004C8023650BF0C5FCB8F10E0F04D008F0C9
:10059000EF08B8F1080F02D101238DF83A3097F92E
:1005A0007821994B012A01F0068093F98021012AD4
:1005B00001F004800023954A8DF835301368C3F3A9
:1005C00040028DF83620C3F380128DF83820C3F333
:1005D00040328DF83020C3F3C0328DF8332013F44D
:1005E000006207D097F81221B2F1010EDEF100028D
:1005F00052EB0E02C3F38040B7F8D4408DF834209C
:100600008DF83700C3F30042B7F8E0008DF83920C9
:1006100003F00101C3F3C002ADF83E40DC048DF8E5
:1006200031108DF83220ADF83C0004D5764BB3F88C
:10063000DC30ADF83E30B0F5FA7F84BF0023ADF872
:100640003E3097F86231724885F85430002385F8BF
:10065000553043709DF83A30002B14BF022300231D
:1006600001B902B101336B484FF0000800EB83037E
:10067000DB6AC146059305984FF6FF7230F80830E3
:10068000934200F0FA80DAB2634C9DF835104FEADD
:10069000021B1B0A5C4419B1023A012A40F2E780AE
:1006A0009DF836203AB162685C498A4203D12289BA
:1006B000082A00F0DC80022B3BD19DF83020002A74
:1006C00000F0D5805FFA89F21C20424354494FF074
:1006D000000A8F18012087F8019087F802A087F898
:1006E0000AA088542189627B6068ADF84410FC60E0
:1006F00031468DF846208DF8473004F013FE464B06
:10070000A17A53F80B00524603F0E3FF204605F0B0
:10071000F1FE444BC7F818A03B61434B20467B6178
:1007200007F1100107F1140207F00AFE09F10109AF
:100730009DE0012B3ED19DF83130002B00F09780D9
:10074000FF2385F89C3085F89D30637B0027228944
:1007500060688DF846303146022385F8A070C5F8F0
:10076000AC408DF84730ADF8442085F85870EF65FF
:100770002F666F66C5F8987085F89E7085F89F7033
:1007800004F0D0FD244AA17A52F80B003A4603F057
:10079000A0FF204605F0AEFE244B2549C5F8B03039
:1007A000244BC5F8B870C5F8B43020460A1D07F0D0
:1007B000C7FD5CE0032B5AD19DF83730114F3BB198
:1007C00097F856A0204608214FF6FF72002341E01B
:1007D000BDF83C3097F856A0B3F5FA7F32D9164AE7
:1007E0002046B2FBF3F20821BDF83E3092B205F08C
:1007F000C3F807EB8A03C3F88001104B31E000BF58
:100800006C170020A800002060060020AC04002027
:10081000FD0000201CD40008D0D7000800080140CB
:1008200048010020CD480008214500084544000843
:10083000580100204945000800127A006945000867
:10084000D6070020A54A2046B2FBF3F2BDF83E30A1
:10085000012192B205F090F807EB8A03C3F88001FA
:100860009F4BC36097F85630013387F8563008F134
:100870000208B8F11C0F7FF4FEAE9A4B04221A70E6
:100880000024994D994B254423441034402C0FCB20
:1008900085E80F00F5D1964B96491C680A68964B7F
:1008A00002F480571D6800230FB1A18800E0A988D9
:1008B000924819520233182BF6D1500302D4904BB0
:1008C00001221A708F4A0020137843F0040313703A
:1008D00007F08AFD874B8C481F68002107F002074C
:1008E00010220BF016FBEFB18848002302680121AB
:1008F000994001F00800884205D199000F2000FAC4
:1009000001F122EA01020133082BF0D17F49804B2B
:100910000A60032283F8B0210127072283F8B2710D
:1009200083F8B3217B4B7C4D5A68284642F4404201
:100930005A605A69002442F001025A619A6942F4ED
:1009400000729A6105F0CAF9744B31461193744BE9
:10095000284612934FF4807317934FF480631893D3
:10096000202319934FF4005314971A93139415945A
:100970001B94169405F094F92B68013F43F0010392
:100980002B60684BFFB25A6822F4702222F4807206
:100990005A609968644A0A4042F4602242F00202B6
:1009A0009A60DA6A22F4700242EA0757DF62012392
:1009B000554A11198878002851D0A25C581C092A80
:1009C000CF78C0B2574910D9A2F10A0505EB450509
:1009D0004FF0070E0EFA05FEAF40D1F80CC02CEA1E
:1009E0000E0E4EEA0705CD600DE002EB42054FF01A
:1009F000070E0EFA05FEAF40D1F810C02CEA0E0E1D
:100A00004EEA07050D61062B46490CD8013B03EB66
:100A100083031F259D409A404F6B27EA050545EA51
:100A200002034B631CE00C2B0CD8073B03EB830346
:100A30001F259D409A400F6B27EA050545EA0203F2
:100A40000B630DE00D3B03EB83031F259D409A4094
:100A5000CF6A27EA050545EA0203CB6200E01846A3
:100A60000434102C01D00346A2E72E4B9A6842F4BE
:100A700080729A609A6842F001029A609A6842F025
:100A800008029A609968274A09070CD5FAE7531EAD
:100A9000092B8CBF00230123DEE4244B83F81FA124
:100AA00006F086FC2EE5936843F0040393601D4A2C
:100AB000936813F00403FAD11C4D9168B5F8E8006F
:100AC00041F4A0019160A0BBB5F9EA3083BBB5F950
:100AD000EC30D3F1010338BF00232AE040420F007D
:100AE00059450008480E0020580E002058D4000830
:100AF0005C0F0020AC040020540F0020620F002087
:100B0000600F0020B81800205802002000080140A3
:100B1000A800002000100240080002404C240140C0
:100B20006802002000240140FDF7F1FF600600206C
:100B3000034613F001031CD1B64A00B2137108F04A
:100B40008DFAB54908F0DEFA1190B5F9EA0008F01F
:100B500085FAB14908F0D6FA1290B5F9EC0008F020
:100B60007DFAAD4908F0CEFAAC491390304605F055
:100B7000EDFCDFF8E482AA4CD8F800300021B3F88D
:100B800056300C22A74805930027B5F8F09095F849
:100B9000EFB095F8F7A095F8F8600BF0BAF90021DE
:100BA0001022A1480BF0B5F939460C2284F8EC71FB
:100BB00084F8ED7104F5F8700BF0ABF92320C4F85C
:100BC000FC7104F046FA752001210DF11D0207F0B9
:100BD000CDFE002868D0954B3846C4F8F431944BCC
:100BE0000121C4F8F8310DF11E02432384F8F031DD
:100BF00007F0BCFE9DF81E3003F07E038DF81E301A
:100C000040B1682B06D1012384F8EC311D2384F810
:100C1000F03149E09DF81D3003F07E03682B8DF81C
:100C20001D303CD10223062084F8EC310146D4F873
:100C3000F43111AA98479DF847309DF8498003F098
:100C400001035B0008F0010843EA88089DF845307D
:100C5000734F03F0010358EA03080BD0B8F1010FFA
:100C600001D1002303E0B8F1020F0FD1012387F86F
:100C7000ED3119E0D7F8F4310C2001210DF11F02FC
:100C800098479DF81F3013F00F0303D1032005F0A0
:100C900011FE09E0042BE9D187F8ED8104E0702B07
:100CA00004BF042384F8EC31624B00221A7094F8DC
:100CB000EC21022A40F07B845B4B5F4A5F4F1A6055
:100CC0005F4ABBF1090F5A605E4ADA604FF00103D8
:100CD0003B705D4B1A68184642F00101196000F242
:100CE0004A84012101FA0BF140F2B2330B40002B90
:100CF00040F0398411F04D0F00F0358453490B70EA
:100D0000484B534919605349596094F8ED11002933
:100D100014BF6E216F21197203231A437B70026086
:100D2000042E00F29D804FF0010808FA06F313F03C
:100D3000160B40F09B8013F0090F00F08F800A2003
:100D400004F087F97720A02142460DF11F0307F038
:100D5000A0FC002800F08A8077201E21424607F080
:100D60004BFC4FF42F6004F069F9ABF160010026F1
:100D7000C9B2022211AB77208DF844608DF845602E
:100D800007F087FC9DF845309DF8441043EA0121A7
:100D9000234B03F500722BF802100BF1020BBBF191
:100DA000100FE2D1B3F80E02012200F00F0100F49F
:100DB0007F40A3F80E02334623F0010EA644BEF88E
:100DC00000E2BEF1000F18BF002213F0010F06D0A1
:100DD0005FFA8EFE86EA0E064FF0080E02E086EA03
:100DE0001E26F9E716F4004F18BF86F4C056BEF170
:100DF000010E4FEA4606F5D10133102BDCD1084332
:100E0000A4F80E0292BBC6F30336B14200F0B783DA
:100E10002CE000BF0000002035FA8E3C700200205C
:100E2000A80000204C0D0020E00C00206D89000877
:100E300089860008F60C0020755E0008300000204E
:100E40008D45000890C1793D1C060020CD1800207A
:100E5000495E0008D5450008DC0C0020012E05D0B5
:100E6000334BBE701A6842F004021A60304E336889
:100E70009B0702D52F4B1B6898472F4B48461B6892
:100E800098472E4B00221A709946BAF1000F03D0F2
:100E9000BAF1020F40F084831CAB03F82C2DC4F888
:100EA00010221E200A21012207F0F3FB002800F087
:100EB00077839DF84430482B40F07283204B214AC1
:100EC0001A60214A5A600223FB70336843F008031A
:100ED000336095F8E4300BB11C4A137095F8E53097
:100EE0000BB11B4A137095F8E6300BB189F800304E
:100EF00033681E0732D5059B64270FFA83F898FBE9
:100F0000F7F6304608F0AAF8814607FB168000B2D3
:100F100008F0A4F80F4908F0F5F80146484607F034
:100F2000E9FF0D4908F0EEF8C4F8140219E000BF1B
:100F30001C0600204C0D0020E00C0020CE180020E4
:100F40004C060020CD87000855870008F60C0020CD
:100F5000CD1800208988883C000020410023C4F877
:100F60001432A34BA34E1A784FF00F0842F002023E
:100F70001A704FF4005272614FF480423261F3688C
:100F8000192083F40053F360F36808F1FF3883F409
:100F90008043F360F368974F83F40043F36004F0F9
:100FA00058F8192004F055F818F0FF08E7D14FF46D
:100FB00080433B614FF400568F4B3E611A68984660
:100FC00012F0080F07D08D4B7E611B6898478C4B41
:100FD00001223E611A708B4B8B4E1B68187B08F008
:100FE0003DF88A4908F08EF8894907F083FF04F03C
:100FF000BEF80746308808F031F8394608F082F824
:101000000AF0A4FF834B1880308808F027F80146C7
:10101000814808F02BF9814908F028F9804B7B4979
:101020001860804B804ED86808F06CF87F4908F053
:1010300069F87F4B1B221860FF2106F506700AF045
:1010400068FF002384F81832D8F80030012298078E
:1010500084F8332207D586F81922032286F8332232
:10106000022286F81A22590708D594F83322511C17
:1010700084F833122244032182F8181213F00A0F65
:1010800014D094F833320421E21882F818125A1C52
:10109000D2B22244052182F81812DA1C0233DBB2E4
:1010A00084F833222344062283F81822614F3B68D8
:1010B0009A0608D594F83322511C84F8331222443E
:1010C000072182F818126A79082A01D00E2A08D15D
:1010D00094F83322511C84F8331222440B2182F8F5
:1010E000181294F833224FF00C0EA618511CC9B2F6
:1010F00086F818E25E074C4884F8331206D50232AF
:1011000080F833220144102281F8182294F8332207
:101110004FF0120EA618511CC9B286F818E25E05EF
:10112000414884F8331209D595F8886136B1023206
:1011300080F833220144132281F818229E0508D535
:1011400094F83322511C84F833122244152182F87A
:101150001812D80508D594F833325A1C84F8332273
:1011600023441A2283F818220021982232480AF0D8
:10117000D0FE012003F08AFD0026002860D0012E59
:101180005ED84FF04C0C0CFB06FADFF8ACB00BEB62
:101190000A0999F84A80B8F1000F02D00136F6B278
:1011A000EBE70179254B90F9002003EB8103032144
:1011B0008DE802011046DB6F01214246CDF810C0D8
:1011C00007F06EFDDDF810C0034668B148464146A1
:1011D000624603930AF09DFE039B4BF80A300123FD
:1011E0001E4489F84A30F6B2012003F02FFDC4E70F
:1011F000B8180020001001401C0600204C060020FA
:10120000800B0020940D00201000002035FA8E3C49
:10121000DB0FC93FB00D00200AE81C4100401C460E
:10122000B80C0020E00C0020A8000020BD37863557
:10123000900D0020AC040020DC0200201CD400082B
:10124000B5F8DE306E496F48A4F8D03200230B8029
:101250008B7001686C4A01F1790EB5F824016B4975
:10126000C4F8CC220A6084F8D23282B2684E69494E
:1012700036685A5206F5967C674E46F813C002331C
:10128000242B8C46F2D13E68F10454BFB5F82A31C4
:101290001346ACF8063000231EF80320B2B90EEB5B
:1012A0000302917892F8038041450FD209B10139C8
:1012B00001E008F1010101EB8101527801EB8101AC
:1012C00001F5617189B204322CF812100433502BED
:1012D000E2D1330740F1E58095F81E31062B00F28C
:1012E000DA80DFE803F004070E355171710045F232
:1012F000F05201E042F6F822484B1A8007F0FEFC5B
:10130000C8E0464B42F6F8221A8000010A2390FBFF
:10131000F3F0A0F5B0600023414A98500433482B05
:10132000FAD1404B404A40209A60122384F81C3383
:1013300003F0ACFC002800F0AE8001234FF0070959
:1013400090F9000040218DE80802384A384B9CE0B3
:10135000324B42F6F8221A80324B364A40209A60CD
:10136000102384F81C3303F091FC002800F09380D4
:1013700001234FF0000890F9000040218DE808019A
:101380002D4A4FF4E13380E0244B42F6F8221A80D4
:10139000244B2A4A40209A60082384F81C3303F027
:1013A00075FC002877D001234FF0000C90F9000065
:1013B00040218DE80810224A4FF4E13307F070FC19
:1013C000204BC3F8200362E0144A42F6F821118052
:1013D000062B4FF00C021C4884F81C2336D0002347
:1013E000037084F8243384F825331B2384F82633D0
:1013F000052384F8272384F828334FF4E13633E0BB
:10140000300F0020DC0C002076070020B404002000
:10141000B4180020140E00207C030020F00D0020E2
:101420000805002000000020B9410008E94F00082D
:10143000A0860100A9410008394F00089541000825
:10144000ED4E0008A8000020EC05002000210170EE
:1014500084F8241384F825135C4E212184F8261384
:1014600084F8272384F82833594A5A4B40209A603D
:1014700003F00CFC78B101234FF0000E564A90F9AE
:10148000000040218DE80840334607F009FC003099
:1014900018BF012028B9082003F0DCFE4F4A4D4B4D
:1014A0009A603B68590405D5122284F81C234C49E4
:1014B000484A916042F201021A409AB1494A44F600
:1014C000206111809A0405D5082284F81C2346491E
:1014D000404A9160DB0705D50C2384F81C33434A4E
:1014E0003C4B9A6094F81C33043B84F81D3303F0A2
:1014F00055FC3F4B18606B79052B03D13D4B4FF4E6
:10150000C8721A803C4B4FF47A721A803B4BC82247
:101510001A803B4B1A7842F008021A70394B1A783D
:1015200022F002021A703A6840F6020313406BB1CF
:10153000354B0122C4F82C33032384F83033334B6A
:101540001A700023A4F83233A4F83433AB680122B4
:101550003B602F4B1A702F4A137863F07F03137090
:101560001DB0BDE8F08FBBF1010F04D82A4B00225B
:101570001A70FFF7D5BB4FF0000BFFF7B2BB274B3C
:1015800042F210721A805A80254A03265A60254A70
:101590009A60254ADA60254A1A61254A5A615FE451
:1015A000BAF1010F7FF695AC4FF0000A69E4012013
:1015B00005F080F9D5E403F5BC7301E003F5C073D1
:1015C0005B88003318BF0123FEF7F5BF90D00300FE
:1015D0005541000800000020D54D000809420008D0
:1015E000E5410008F00D0020F1410008FD41000830
:1015F000E00D00205E0D0020CA180020C818002051
:101600005A060020CF180020680700203400002070
:10161000600F0020B8180020CD1800208C0B00208F
:10162000818600083587000879860008458700080C
:101630000D420008744B2DE9F04FB3F90600734BCF
:1016400099B01F687B8998420FDBB0F5FA6FFE797D
:1016500007DAC21A5643A3F5FA6396FBF3F664362B
:1016600001E0C6F16406089601E064210891684B28
:101670000021B3F824219B460692664A1268049220
:1016800093F9EE20DDF810C092B207920A465E4B45
:10169000069CCB5E05931B1B03F2F31540F2E63468
:1016A000A54203D8002BB8BF5B4201E04FF4FA73A8
:1016B000022A049E4FF06405574C2ED096F81181F3
:1016C000B8F1000F04D04345CCBFC8EB030300239F
:1016D00093FBF5F86FF0630A34F818900AFB083AA8
:1016E00008F1010834F918800FFA89F4C4EB0804F2
:1016F00004FB0AF494FBF5F4A144484C21F804904F
:10170000BC1824796343464C93FBF4F36433089C80
:101710009BB2634393FBF5F52FE096F81281B8F185
:10172000000F04D04345CCBFC8EB0303002393FB59
:10173000F5F56FF0630904EB450809FB053A04EB86
:101740004505B8F90E80B5F91040344DC8EB0404D6
:1017500004FB0AFA079C9AFBF9FAC8EB0A0808FB93
:1017600004F8A5F80480BC7983EAE375A5EBE3757A
:1017700065432B4C95FBF4F56435DDF81080264B62
:10178000904498F801904FF0640805FB09F903F1C3
:101790001C0499FBF8F902F804909CF80B9003F1F3
:1017A0001F0405FB09F999FBF8F902F804909CF86D
:1017B0001590022A05FB09F503F1220495FBF8F5C3
:1017C000155518BF089D1C461ABF2533D55483F8FC
:1017D0002780059E069B114D9E4202DA6B5A5B42A2
:1017E0006B520231062902F101020CF1010C7FF467
:1017F0004EAF074FB7F82631984213DBB0F5FA6FBA
:10180000A8BF4FF4FA600EE0140E0020440E002032
:1018100060060020DC0C0020E00300203C060020D5
:101820000CFEFFFF1846C01A4FF47A725043C3F5FE
:10183000FA63B0FBF3F34FF0640C93FBFCF204EBA0
:1018400042016FF0630000FB0233098D04EB42029A
:10185000B2F92A000AB2821A534393FBFCFC904B64
:1018600061441B888F4E5B06E98042D58E4B1888F9
:101870008E4BB3F84030C01A00B207F0EFFB8C4932
:1018800007F040FC8B49804607F034FB03F06FFC07
:101890008146404603F06BFC8046B6F9020007F033
:1018A000DDFB8246B6F9000007F0D8FB49460290FE
:1018B00007F028FC414603465046039307F022FCFC
:1018C000039B0146184607F013FB07F0E1FD49466C
:1018D0003080504607F016FC029A81464146104679
:1018E00007F010FC0146484607F004FB07F0D0FD66
:1018F0007080714B1A68994612F0020F6ED06F4BD0
:10190000626C1B6845F207219A1A8A42DFF89C81B3
:1019100064DD6B4EC8F8443003F094FE3378032B3B
:10192000B8F8483021D10A2B2AD900232820337057
:1019300003F08FFB03F086FEB8F84A0003F096F838
:10194000604B61491B68DA7890FBF2F0421C082A70
:1019500028BF082258791B790A7092B250435A4323
:101960005A495B4B08801A800AE00A2B08D80323E7
:10197000554A337000231370544A1380544A13801D
:1019800032784F4B012A0CD002D3022A1CD025E01A
:101990004E4B1A88B4F848309A421FDD0123337049
:1019A00010E04B49B4F848200988914202DD022238
:1019B0001A7010E04549098801318A4202DD00228F
:1019C0001A700BE0082007E0414BB4F848201B8850
:1019D00001339A42E2DC072003F074F8D9F800A042
:1019E0003C4E1AF4006F00F09280344BE16C1A68A0
:1019F0002E4BC1EB020845F20721884540F3878052
:101A0000DA64304AB7F8DE10B5F906701568A7F544
:101A10007A77AA7A012A03D064D3022A20D063E01D
:101A20002D4A1F6D517B2D4A32F81100082297FB79
:101A3000F2F180B2791A014491FBF2F2196592B287
:101A400040F6E4414A43A3F8540028894FF47A71E0
:101A5000C0EB12324A43B5F9061092FBF1F242E0B4
:101A6000B5F80890C3F85890337858073CD51C480F
:101A700004F08CFE18B91AF0100F18BF002707FBEE
:101A800007F2322392FBF3F31F44B5F906305F43AC
:101A90004FF47A7397FBF3F74F44A76524E000BF38
:101AA000120600203C060020C80D0020E0030020A4
:101AB00035FA8E3CDB0FC93FAC040020BC18002077
:101AC000D8030020D403002034000020DA030020D3
:101AD000DC030020CF1800205802002068020020FC
:101AE0007607002000229A65A36D4FF47A7203FBFB
:101AF00008F3D4E9180193FBF2F3C01841EBE3714A
:101B0000C4E91801A84A002307F008FDA066A74B06
:101B10001A68984612F4805F02D00A2002F0D2FFC1
:101B2000E76EA34D002F3BD0A24B2A6F1968994650
:101B30008A4235D895F87420B5F8763079687AB944
:101B4000012285F87420C95C89B185F8782073B9C1
:101B50003B78053B93420AD803F020F9E86706E09A
:101B6000002285F87420CB5C0BB185F87820B4F89E
:101B700076107A688E4B525CFE2A03D10022A3F8BD
:101B800076200DE0FF2A02D102F086FF08E0D9F8A6
:101B900000000A2505FB020201311A67A3F876103E
:101BA00033785A0705D5844B4FF480425A61834CF1
:101BB00044E0D8F80020D70703D4814A43F001035A
:101BC0001370804B1B781D0703D4337823F0010377
:101BD00033707D4B1B68580702D57C4A128862B966
:101BE0007B4A12880AB1990705D47A4B1B880033C7
:101BF00018BF012300E001233BB1022384F87830B1
:101C0000337823F00103337005E03278D20758BFF0
:101C1000022384F8783003F0C1F8C8E7322003F0DB
:101C200018FA6D4B1B68590300F146866B4A6C4BE2
:101C3000DA606C4E4C34B44200F0498694F84A3075
:101C4000012BF6D15A4E2368C6F88040C6F884307E
:101C50003746D7F88400564D03685B6898470028DC
:101C600000F00986D5F884000368DB689847D5F84A
:101C7000805095F848301BB9242839D1012334E02D
:101C8000012B04D14D280CBF022300232DE0022B91
:101C900004D13C280CBF0323002326E0032B09D1E9
:101CA00040284FF0000320D82B71EB716871A871A8
:101CB00004231AE0042B06D1AB7985F8490058407B
:101CC000A871052311E0052B21D16A792B799A425D
:101CD000AA7906D94240AA715A1C2B442A7118725B
:101CE00015E082420CBF0623002385F848300EE041
:101CF000334B1B785B070AD43B4B1B681B78834232
:101D000005D13A4A3A4B1A60344A354BDA6095F8B5
:101D1000480006289DD195F84930462B00F07B8578
:101D200000F2C2802C2B00F0E08471D8052B00F06B
:101D3000588128D8022B00F038810DD8012B40F0B3
:101D4000E585032002F058FF002002F025FF012066
:101D500002F022FF0D2035E1032B00F03781042B28
:101D600040F0D485062002F047FF432002F014FF24
:101D70004A2002F011FF4D2002F00EFF312002F048
:101D80000BFF00F063BC262B00F08E8434D8222B8E
:101D900000F08783242B40F0B985042002F02CFF4B
:101DA000144B986800F04CBD407E050020060020D2
:101DB000E0030020B418002000100140DC020020E5
:101DC000CF1800205A0600201C060020C81800204A
:101DD0005E0D0020CA180020AC0400200400FA05A3
:101DE00000ED00E074030020D4000020EFBEADDE63
:101DF000F04F002060060020282B00F063842A2B7F
:101E000040F08485012002F0F7FE844B5879D9E038
:101E10003A2B00F02F8226D8342B00F0628309D8A9
:101E2000322B40F07385012002F0E6FE7B4B93F8E5
:101E30002001C7E0362B00F0D484382B40F06685B3
:101E4000764D042002F0D8FE95F8080102F0A4FEB9
:101E500095F80C0102F0A0FE95F80B0102F09CFE33
:101E600095F80D01AEE0402B00F08A8410D83B2B92
:101E700000F010833D2B40F04985684D022002F0B0
:101E8000BBFE95F86E0102F087FE95F86D0199E0B2
:101E9000422B00F08384452B40F03885132002F05C
:101EA000ABFE002500F0C1BC6E2B00F0E78145D8E9
:101EB000652B00F0C18023D84B2B00F0358409D866
:101EC000492B40F02385022002F096FE534B98895F
:101ED00000F084BC4D2B00F03684642B40F0168556
:101EE000072002F089FEE72002F056FE4B4B58799E
:101EF00002F052FE002002F04FFE042000F0A0BCD1
:101F0000692B00F097810AD8662B00F06381682B5B
:101F100040F0FC84102002F06FFE002582E16C2B63
:101F200000F09B816D2B40F0F184062002F064FEEE
:101F30003B4B186802F06CFE3A4B99E1742B00F0B1
:101F4000F0820FD8702B00F01782C0F0C481722B82
:101F500000F03183732B40F0D984082002F04CFE4E
:101F600001256CE3A02B00F091830BD8752B00F0BA
:101F70008582772B40F0CA842B4E0025307802F002
:101F80003BFE0CE3F02B00F06383FE2B40F0BE849D
:101F9000082002F031FE002002F031FE002002F0A5
:101FA0002EFE002002F02BFE50E3042002F024FE5F
:101FB000432002F0F1FD4C2002F0EEFD462002F03D
:101FC000EBFD4C2002F0E8FD00F04ABC032002F0DB
:101FD00013FE012002F0E0FD0B2002F0DDFD0020E9
:101FE000F0E71A2002F008FE0025104B585D01357D
:101FF00002F0D2FD0B2DF8D100250D4B585D0135B7
:1020000002F0CAFD082DF8D100250A4B585D0135B4
:1020100002F0C2FD072DF8D100F022BC60060020BE
:1020200028060020C80C0020DB020020B0D80008E1
:10203000BCD80008C5D800080B2002F0DDFDD6F89A
:102040008830BA49D86807F05DF807F047FA80B2DF
:1020500002F0D5FDB6F88C0080B202F0D0FDB44B92
:102060001B68C3F3C000C3F38002800040EA420053
:10207000C3F340021043C3F3401240EAC20003F02E
:102080001003184302F0BBFDAA4B1A88AA4B12F0AA
:10209000010F0CBF0025022512F0020F0CBF002615
:1020A000042612F0040F0CBF0020102012F0400F85
:1020B0000CBF0021202112F0100F04950CBF002549
:1020C0004FF4007512F0200F1B6805960CBF002618
:1020D0004FF4806612F4807F06900CBF00204FF40E
:1020E00000600A9003F400200B9002F0080A03F04D
:1020F000C00003F4807940EA0A0A03F480584AEAEF
:10210000090A03F4005C4AEA080A03F4804E4AEA2A
:102110000C0A03F400474AEA0E0A0791099603F4F1
:10212000802103F480364AEA070A0895019103F4F6
:1021300000354AEA060A03F480114AEA050A019DBD
:102140000C910B9E4AEA050A0C984AEA060A4AEAEA
:10215000000A7A4803F0007305784AEA0303C5F3DE
:1021600080052B43049D059E2B4306983343079D12
:102170000343089E2B4309980A9D334312F4007FC2
:1021800043EA000343EA05030CBF00214FF40011AA
:1021900012F4806F43EA01010CBF00234FF080630B
:1021A0001943674B00201D780346AB420CD2654AA9
:1021B0009E5C012202FA06F60E4218BF9A4003F115
:1021C000010318BF1043F0E702F022FD5E4B93F8C5
:1021D000EC04F7E6122002F00FFD5C4B00251B8893
:1021E000B3F5806F94BF01260826594BE85E02358F
:1021F00090FBF6F080B202F002FD062DF5D1554DB0
:10220000288802F0FCFC688802F0F9FCA888524D8E
:1022100002F0F5FC288802F0F2FC688802F0EFFC7E
:10222000A888DBE24D4B585D013502F0B5FC102D5E
:10223000F8D115E34A4E00253078400000F0FE004A
:1022400002F0DAFC33789D4280F00A83454B33F884
:10225000150002F0D4FC0135F4E7434D062002F0EE
:10226000CBFC288802F0CBFC688802F0C8FC3F4B0E
:102270001888B3E2042002F0BFFCE0E2072002F07D
:10228000BBFCB6F848004FF6FF77FF28A8BFFF2039
:10229000C0B202F081FCB06E354DB842A8BF3846DE
:1022A00020EAE07080B202F0AAFCB6F88E0002F0DC
:1022B000A6FC254B93F8133143B1AB6D0A2058436C
:1022C000B842A8BF384620EAE07002E0A86D00F3EB
:1022D0000F0080B282E2274D0B2002F08DFC2B68AC
:1022E0000026187802F058FC2B682F46587802F028
:1022F00053FC3B681F4D33441879013602F04CFC07
:10230000032EF6D12B68D87902F046FC2B6898781A
:1023100002F042FC2B68D87802F03EFC2B6858890A
:1023200002F06DFC2B68187A4CE600BF00007A447E
:102330001C0600201206002020060020CF180020D6
:10234000DB020020C00200206006002010000020F8
:102350000C060020F00C002054060020180F00206E
:10236000C4030020140E002008060020C80D002021
:10237000E0030020440E0020BC4E1E2002F03CFC76
:10238000336800251B78022B65D1336805F10802FC
:1023900053F82200B64906F0B5FE09F0D7FD80F3E8
:1023A0000800C0B202F0F8FB3368B24903EB8503C2
:1023B000D86A06F0A7FE09F0C9FD80F30800C0B294
:1023C00002F0EAFB336805F10E0253F82200AA4935
:1023D00006F098FE09F0BAFD80F30800C0B201359E
:1023E00002F0DAFB032DD0D1072D336821D1586CD0
:1023F0009F4906F087FE09F0A9FD80F30800C0B2EE
:1024000002F0CAFB33689A49986C06F07BFE09F02B
:102410009DFD80F30800C0B202F0BEFB336893F864
:102420004C0006F017FE09F091FD80F30800C0B2E1
:102430000BE02B44587802F0AFFB33682B44D87A7A
:1024400002F0AAFB33682B44587D013502F0A4FB4F
:102450000A2DC9D104E233682B44587802F09CFB62
:1024600033682B44D87A02F097FB33682B44587DAD
:10247000013502F091FB0A2DEDD1F1E12F2002F0A0
:10248000BBFB7E4D15F8010F002800F0E98102F03A
:1024900083FBF7E7012002F0AFFB744B1B68187851
:1024A00090E5502002F0A8FB0025704B05F11E02BC
:1024B0001B680C2103EB82035E1C714A5B780135BB
:1024C00001FB0323187A02F067FB707802F064FBCB
:1024D000B07802F061FBF07802F05EFB142DE4D1DD
:1024E000BEE1482002F088FB0026062777435F4BB9
:1024F000C8371B6801361F44B87902F04DFB787865
:1025000002F04AFBB87802F047FBF87802F044FB8F
:10251000387902F041FB787902F03EFB0C2EE4D1D1
:102520009EE14FF0000801250026564B1B789E4285
:1025300022DA554BF15C0023514A03EB02099A5C05
:102540008A4204D00C33B3F5A87FF5D112E0D9F854
:10255000040009F0F3FC82460DB92F4601E08044E7
:1025600008E0574506DAD9F80430D85D02F014FBCC
:102570000137F6E70136D8E7002D00F071815FFAE8
:1025800088F002F039FB0025CEE73D4A99189A5CA5
:1025900082420CD00C33B3F5A87FF6D101353378E5
:1025A0009D4280F05D81384BE85C0023EDE7087ABE
:1025B00002F0F2FAF2E7162002F01EFBBBF824014B
:1025C00002F01DFBBBF8D00002F019FBBBF8D200F3
:1025D00002F015FBBBF8D40002F011FBBBF866015A
:1025E00002F00DFB002002F0D7FA002002F0D4FA2E
:1025F000002002F0D1FA9BF8130102F0CDFA9BF80B
:10260000200102F0C9FA002002F0C6FA174B1B683D
:10261000B3F956000A2390FBF3F080B202F0EFFA10
:102620009BF8080102F0B8FA9BF80C0102F0B4FA2A
:102630009BF80B0102F0B0FA9BF80D01C2E4E8B27E
:10264000013502F0A9FA092DF9D109E10020C5E010
:10265000064D042002F0D0FA2B68B3F85A0002F0BD
:10266000CEFA2B68B3F85800B8E000BFDC0C0020AD
:10267000000020410000C84200007A44DFD4000876
:1026800010D50008DB020020C00200200C2002F060
:10269000B3FAC24B186802F0BBFAC14B186802F0DB
:1026A000B7FAC04B1868CBE0BF4D02F0A5FAB5F8F9
:1026B000E80002F0A4FAB5F8EA0002F0A0FAB5F8D2
:1026C000EC008BE0B84D072002F096FAB5F80E0149
:1026D00002F095FAB5F8100102F091FA95F812019E
:1026E00002F05AFAB5F8140178E0AF4D0C2002F070
:1026F00083FA95F81E0102F04FFAB5F8280102F0AE
:102700007EFAB5F8240102F07AFAB5F8260102F053
:1027100076FA95F81F0102F03FFAB5F82A0102F0A7
:102720006EFAB5F82C0159E09F4D042002F064FACE
:1027300095F8640102F030FA95F8650102F02CFA80
:10274000B5F866014AE0994F994D3878002600EBBC
:102750004000C0B202F050FA3B7802359E427FD270
:1027600015F8020C02F018FA15F8010C013600EB0E
:10277000800000EB800000F2EE2002F040FAEBE770
:10278000082002F039FA0025874B2B4493F81601F4
:10279000013502F001FA082DF6D161E0824D1020DA
:1027A00002F02AFA687902F0F7F9A86802F030FA24
:1027B00095F81E0102F0F0F9B5F8E80002F01FFAF2
:1027C000B5F8EA0002F01BFAB5F8EC0002F017FACF
:1027D000B5F80E0102F013FAB5F8100102F00FFA85
:1027E0003EE0744B704D187805F11006C0EBC00048
:1027F000C0B202F001FA704A95F8780192F900101F
:1028000043B299426BD092F90C209A4267D00835B6
:10281000B54225D0EFE70D2002F0EEF9002002F0DE
:10282000BBF9002002F0F4F906E0644B585D013575
:1028300002F0B2F90B2DF8D1002002F0E9F90020E6
:1028400002F0E6F90CE0D42B07D0D22B40F0AA839B
:102850005B4B1B785B0740F16C83002002F0CCF9E6
:10286000584DD5F88030987902F096F9D5F8803037
:10287000002283F84820534B93F8BC30002B3FF4E0
:10288000D8A925682B6828465B69984718B90A209B
:1028900002F0DFFBF6E703F0E7FF4B4B1A7800236B
:1028A000D9B29142BFF4BAA94849002051F8231087
:1028B000013309680880F3E73B4B9B685A033FF5F7
:1028C000B5A940F2DC5002F0C4FBFFF7AFB9404BB2
:1028D0009B68002B00F069833E48984765E302F04F
:1028E0005BF9B5F87A0102F08AF995F87C0102F0FB
:1028F00053F995F87D0102F04FF995F87F0102F048
:102900004BF995F87E0102F047F980E74C2B0DD189
:1029100002F087F9244D85F8640102F082F985F808
:10292000650102F089F9A5F8660196E700F2828157
:10293000372B53D16B790726B3FBF6F6C6EBC602ED
:102940009B1A13F0FF0F02D003F0A6F985E7F6B249
:10295000002E82D002F065F91F4BC0B21D6843B251
:1029600095F902209A4208BF023504D095F90A2051
:102970009A42E9D10A35287002F05EF9688002F0C7
:1029800050F9287102F04DF9687102F04AF9E871C6
:1029900002F047F9013EF6B2A871D9E7E8F7FF1F48
:1029A000ECF7FF1FF0F7FF1F60060020C4030020B4
:1029B0008E070020D8000020DC000020B0D80008DE
:1029C000CF180020E0030020480E0020280200203D
:1029D000E00C00209E040020D400002000F2C18002
:1029E000292B11D102F028F9C84DA5F80E0102F0EB
:1029F00023F9A5F8100102F014F985F8120102F08C
:102A00001BF9A5F8140128E755D8252B0DD1BF4D8A
:102A10000023AB6002F010F9064602F00DF9AB6836
:102A200006EB00400343AB6017E7272B0DD102F004
:102A300003F9B64DA5F8E80002F0FEF8A5F8EA00A3
:102A400002F0FAF8A5F8EC0007E7232B40F0AA8281
:102A500002F0E7F813283FF677AFAD4F00F11E08FC
:102A60003B6803EB880802F0DCF8AA4B08F101058B
:102A700003F5A872197A814203D00C339342F9D13D
:102A800062E71B7888F8013002F0CBF8687002F03A
:102A9000C8F8A87002F0C5F8E87038689E4BC6F810
:102AA000B8007930C6F8B43003F0CEF89B4B80F014
:102AB00001001870D1E6332B05D102F0B2F8934B28
:102AC00083F82001C9E6352B26D102F0AAF80B289D
:102AD00005463FF639AF8E4B1E6802F0A2F8032878
:102AE0003FF632AF062303FB056686F8CE0002F000
:102AF00098F886F8C90002F094F886F8CA0002F047
:102B000090F886F8CB0002F08CF886F8CC0002F042
:102B100088F886F8CD00A0E62D2B40F0438202F025
:102B200080F87A4E86F81E0102F086F8A6F8280191
:102B300002F082F8A6F8240102F07EF8A6F8260139
:102B400002F06FF886F81F016B79082B7FF685AECF
:102B500002F072F8A6F82A0102F06EF8A6F82C012D
:102B60007BE6412B00F013822CD83C2B09D1684D19
:102B70002E6802F056F830702B68187802F0B6FA1A
:102B80006BE63E2B09D102F04CF8604D85F86E01E2
:102B900002F047F885F86D015FE6392B40F00282BC
:102BA00002F03FF8594D85F8080102F03AF885F82F
:102BB0000C0102F036F885F80B0102F032F885F8C6
:102BC0000D014AE6442B03D1012386F8BC3044E6CC
:102BD0004A2B04D102F030F84C4B98813DE6432B50
:102BE00040F0E081494D02F01CF80023AB6002F098
:102BF00023F8064602F020F8AB6806EB00400343DA
:102C0000AB6002F00EF885F81E0102F015F8A5F889
:102C1000E80002F011F8A5F8EA0002F00DF8A5F8B6
:102C2000EC0002F009F8A5F80E0102F005F8A5F88D
:102C3000100112E6D02B0BD1394B1B785F073FF503
:102C40000CAE04F0BFFB03F07DFE04F01DFA04E6B9
:102C500000F26481CC2B3CD16B79092B7FF674AEEA
:102C6000304E376801F0DDFF3870376801F0D9FF6A
:102C7000787001F0D6FF33686428A8BF642018710B
:102C800001F0CFFF33686428A8BF6420587101F0B9
:102C9000C8FF3368FF28A8BFFF20987101F0C1FF6B
:102CA0003768642828BF6420F87101F0BAFFB87053
:102CB000376801F0B6FFF870376801F0BDFF788122
:102CC0006B790A2B7FF6C9AD356801F0AAFF28722F
:102CD000C3E538D8C82B44D16D796D08122D3FF665
:102CE00033AE0026AE4206D201F0A6FF0FAB23F8AA
:102CF00016000136F6E70023AB420B4A16DA0FA99D
:102D000031F8131022F813100133F5E760060020A4
:102D1000DC0C002010D50008300700202000002027
:102D2000CF180020440E002070040020013D02EB6B
:102D300045052232954203D0002325F8023FF9E7EA
:102D400001229B4B0BE0CE2B40F0A580994B1B78CA
:102D50005D073FF582AD984B1A7842F004021A7075
:102D60007BE5CA2B6CD1954E002533681B78022B6E
:102D700053D1376801F055FF06F06CF9904906F021
:102D800075FA05F1080847F82800376801F049FF8F
:102D900005F10A0307EB830706F05CF9894906F0A1
:102DA00065FA7860376801F03CFF06F053F9864910
:102DB00006F05CFA05F10E080135032D47F82800EE
:102DC000D7D1072D376816D101F02BFF06F042F955
:102DD0007B4906F04BFA7864376801F022FF06F071
:102DE00039F9774906F042FAB864376801F019FFFB
:102DF00087F84C000DE001F014FF2F44787037681D
:102E000001F00FFF2F44F872376801F00AFF2F44DA
:102E1000787501350A2DD4D11FE5376801F001FF1F
:102E20002F447870376801F0FCFE2F44F872376841
:102E300001F0F7FE2F4401350A2D7875EDD10CE530
:102E40004E2B40F0AF806F790323B7FBF3F7122FBF
:102E50003FF67AAD5D4D0026BE42BFF4FEAC01F0F8
:102E6000E0FE85F82E0101F0E7FE40F2ED239842E6
:102E700005DD40F6CA039842A8BF184601E040F2BB
:102E8000EE20A0F2EE20192390FBF3F085F82F013D
:102E900001360235E0E737D901F0CEFE6FF4AF6EB0
:102EA00000EB0E039BB2494DC62B98BFA5F8240139
:102EB00001F0C2FEA5F8D00001F0BEFEA5F8D200D8
:102EC00001F0BAFEA5F8D40001F0B6FEA5F866013F
:102ED00001F0A7FE01F0A5FE01F0A3FE01F0A1FEA6
:102EE00085F8130101F09DFE85F8200101F099FE9F
:102EF000324B1E6801F0A0FE00EB80004000A6F8F7
:102F0000560001F08EFE4EE62A4B1B785E073FF519
:102F1000A4AC2F4B4FF4C8721A809EE4D62B2DD050
:102F200013D8D32B7FF48FAC01F086FE294B188089
:102F300093E401F076FE254B022883F8EC047FF63B
:102F400082AE002283F8EC247DE6F22B3FF485ACC0
:102F5000FA2B05D1174B1B7858077FF574AE21E08B
:102F6000EF2B1FD1154D2E6801F066FEA6F85A0012
:102F70002D6801F061FEA5F858006EE4002501F00F
:102F80005BFE154B58530235102DF8D165E4002532
:102F900001F047FE0D4B2B440135082D83F8160137
:102FA000F6D15AE402F078FE5AE419B0BDE8F08F89
:102FB000ED050020CF1800205A060020DC0C002070
:102FC000000020410000C84200007A446006002052
:102FD0005E0D00200C0E0020620F0020A2492DE99A
:102FE000F04F0A68A14802F59C4320330360A04BD0
:102FF00087B01E78C6B118465B689A4240F20B81D2
:10300000013E067007E12B68072C98BF195D994BAC
:1030100088BF21461B6898489847032C0CD99449CF
:10302000013601EB44042081934BF4B21A78934D9E
:10303000A2421A46E7D81EE02B6804F10E0203EB09
:1030400082029388D2880028E9D0C01A4FF47A719E
:103050004843D31A90FBF3F0084440F6C903984262
:1030600005DC40F2EE239842B8BF184601E040F676
:10307000CA0080B2D3E7824B42F201091B6803EA1F
:103080000909D9F101097F4B38BF4FF00009D3F886
:1030900000A07D4BB9F1000F06D17C490978197069
:1030A0007B4908787B4908701E781EB1794B1E78E1
:1030B00086F001066E480F2380F82C30764B92F88C
:1030C00000801F780322B7FBF2F202EB4202BA1A29
:1030D000D2B200F12E0303EB42020024D5F800B077
:1030E0004FEA480C0292254664455BD016B16B4B03
:1030F000E05A00E03046BBF81430834206D8BBF8F3
:103100001610814234BF0021012100E00021644BF0
:10311000F1B953F825309A4502D2624BE05A1BE0D0
:10312000EBB218460193CDF800C003F005FB019BFC
:10313000DDF800C0032B0FD84FF0010E0EFA05FE8C
:103140004B4B93F82C1021EA0E0183F82C1003E06E
:103150000AF5967143F81410B9F1000F1DD1029AC7
:10316000434B04EB4401505293F8762022B9022FCE
:1031700013D9012083F876004B4B581831F803E03F
:1031800041884A337144B0F804E0714489B2E15295
:1031900008B2032390FBF3F080B2424B0135E052BA
:1031A0000234A1E7324B374A93F82C10B1F10F07E4
:1031B0007942794183F890103C4B69B13C490968E8
:1031C0004E0109D41268D9689A60521AC82A1ED9C9
:1031D000012283F821201AE02D48012101702D4899
:1031E000126801709968DA605B68521A9A4203D9D2
:1031F0002E4B002283F821200024444507DAE0B258
:1032000003F09AFA274B23F814000134F5E7224B18
:103210001A7801321A701A4E3368DD0405D5244B32
:103220001B68DC0701D401F06FFC0F4B1D68134BCA
:1032300019688B7A002B3FD01A4A013B32F81300F1
:103240000B7B1BB1C0F53B60083080B200B2A0F52B
:103250007A70B0F57A7FA8BF4FF47A7020EAE070F8
:1032600005F0FCFE13495CE0BC18002014060020A9
:103270007C0F002008000020C4030020B4040020BC
:10328000AC040020B4180020A0040020A8040020F2
:103290000D0000200C0000207A030020840F002085
:1032A0007C030020140E0020AA0F0020300F002005
:1032B0002006002000007A44326810043AD58C4A77
:1032C000D2F89400281A002834DB05F59C40203001
:1032D000C2F894008748C97A4479874830F81400C6
:1032E00080B290FBF1F092F89810013101F00F01DB
:1032F00082F898100A4482F8990018467F4A9A5C2E
:1033000001331044102B80B2F8D100B290FBF3F0DF
:1033100000B26428A8BF642020EAE07005F09EFE99
:10332000774905F0A3FF774905F0ECFE06F0D6F8E3
:10333000754B18803368754C13F4807F00F0008162
:10334000734B744F9D4203D9BB780BB90123BB70FB
:10335000BB78002B00F0F4806E4B94F8008093F85B
:1033600021506D4B6A1E554255411A68002DC2F31B
:1033700080690CBF03220022C8F380089A4602929B
:1033800097F82030052B00F2D680DFE803F0034EDB
:103390005378859EB8F1000F3AD0604B1868604BA7
:1033A000198803F0F3F9012809D15E4B64211A68EA
:1033B0004F4BD3F8AC30DB8801FB03233B61B9F101
:1033C000000F0DD04A4BD3F8AC301B7943B104F059
:1033D000C7FE032387F820304FF47A73FB61CFE7F1
:1033E000002D40F0A8804F4B3A691968DFF824B1EE
:1033F000914209D904F0B4FE03228BF8202040F654
:10340000B832CBF81C20BBE701228BF82020B7E7AD
:103410004FF48060B9F1000F02D001F09DFB01E094
:1034200001F0AAFB00233B6185E0002D45D104F0AB
:1034300097FEA5E725B1052387F82030012100E09C
:103440002946B8F1000F0DD0344B1B68DA89364B92
:103450001A805A809A80264AD2F8AC205288DA80A4
:10346000022202922F4B1A687B699A4202D8B8F165
:10347000000F5DD147F23053FB6103231EE0237838
:1034800043F00203237001F03FFB264B1A68FB69EF
:103490001344BB61042311E0224B1A688DB1BB6950
:1034A0009A4248D9214B1B781BB9DAF80030DB0768
:1034B00041D4237823F002032370052387F82030BA
:1034C0005EE7FB691344BB6135E0164B08481A6898
:1034D000D0F8AC306421DB884FF4806001FB03231B
:1034E0003B61002387F82030FB7001F045FB47E784
:1034F0007C0F0020580200206802002015100020D8
:103500000000C84200C07F446E040020CF18002095
:10351000404B4C00300F0020200600207403002098
:1035200078030020B4180020140E00202000002092
:1035300000297FF425AF029A12B1104601F0C2FAB9
:10354000984D05F58B70B5F8DE1003F01FF9804635
:1035500078B901F0EFFD944B0022C3F8B080C3F8B6
:10356000B480C3F8B880C3F8BC20C3F8C020C3F847
:10357000C42023785F0743D53368D80640D58B4BEA
:103580001B78D9063CD48A4B874F93F80090B9F149
:10359000000F11D095F86E31B8F1000F16D173B14C
:1035A000844B1A68D7F8C8309B1A002B07DA01F051
:1035B000ABFA87F8CC8023E0B8F1000F19D11020C6
:1035C00001F080FA012387F8CC3019E03BB1794A49
:1035D0004FF47A71126801FB0323C7F8C83097F8DB
:1035E000CC306BB101F058FA6F4B002283F8CC203D
:1035F00006E097F8CC301BB101F04EFA87F8CC907A
:10360000002295F86C9195F86D11B5F826E1B5F8A2
:1036100028C19246684F4FEA9A0AD05F023270453D
:10362000C4BF6AF07F035FFA83FA6045B8BF4AF00F
:10363000400A082AEED15C4A92F8CD0093465045E4
:1036400005D192F8CE20F92A04D8013200E00022F8
:103650008BF8CE20564A8BF8CDA01078574FD8B9AA
:103660003A68D20708D5B8F1000F15D12278D307F0
:1036700012D504F0ABFD0FE0227850070CD5504A6C
:1036800012784AB14F4AD27832B911B101F03CFAFE
:1036900002E0B8F1000FF9D09BF8CE20DFF84081AE
:1036A000142A40F0AF80424B19F100091A7818BF74
:1036B0004FF0010942B3BAF15F0F0ED1227802F048
:1036C000040202F0FF01A2B90B20019101F0FAF906
:1036D0000199354880F8CE1016E0B9F1000F13D0EB
:1036E000BAF17D0F10D1227802F0040202F0FF013E
:1036F00012B101F009FA07E00B20019101F0E2F9A3
:103700000199294A82F8CE10227802F0040202F0D0
:10371000FF01002A76D1BAF1570F10D12A4B4FF48E
:103720007A721A80294B1B685A0702D5284A0A2147
:10373000118013F0080365D1264A138062E03268D5
:10374000530716D5BAF15A0F13D1234B1A781AB171
:1037500019700122214B22E09BF8CF3083F0010346
:103760008BF8CF300BB10C2000E00D2001F0AAF94E
:1037700048E0BAF15D0F00F01C84BAF15B0F00F075
:103780001A84BAF15E0F2DD1032000F015BCBAF1F6
:10379000A70F40F02F84054B1A7842F004021A70EC
:1037A00030E000BF600600207C0F00205A06002099
:1037B00020000020B4180020140E00202006002055
:1037C000A0040020300F0020CA1800201C06002092
:1037D000C8180020C80D0020890D00208A0D002087
:1037E000DC0C0020BAF1560F01D103F0E1FDAA4B29
:1037F0001A78002A00F0F583BAF16F0F40F0EA83DF
:1038000004F0E4FC3368580731D59BF8CF309BB106
:103810002378590710D5A148B5F82631B0F906200C
:103820009A4209DD3B6813F0010305D19C4A32211D
:1038300011809C4A82F8CF303B68DA030AD59A4B54
:103840001A782AB9994A127812B9954A3221118008
:1038500001220BE0954B1A784AB1227802F004025B
:1038600002F0FF011AB91970914B01221A70D8F8B1
:103870000090002309F1790A3B6009F17B04984626
:103880000AF1020303EB080113F808204B7814F83F
:10389000010C9A420AD2214603F0F8F830B114F82C
:1038A000023C01229A403B6813433B6008F1040844
:1038B000B8F1500F04F10404E2D17E4B1F783FB100
:1038C0007D4C7E4F236813F0020F40F00C8304E31D
:1038D00009F1C90809F1CA0408F10103D919DA5D2F
:1038E0004B7814F8010C9A4229D2214603F0CEF805
:1038F00028B394F802E02079714B0EF1FF3E4FF0AF
:103900000C0C0EEB4E0E0CFB00FC9E44654B94F829
:1039100003A003F1D00909EB0C02516871450ED0E8
:10392000002109F80CA0C2F804E09160012202FA1B
:1039300000F093F8002122EA000083F80001063726
:10394000482F04F10604C7D15E4BDFF888911C684C
:103950005D4B4FF000081B6802935C4B1B78039390
:10396000D9F80030002B00F0AF821F78002F00F054
:10397000AB82D9F804200298821A002A0DDB0121BB
:1039800001FA08F100F5FA72C9F80420454A92F8E4
:10399000000120EA010182F80011039A002A00F0D8
:1039A000938219F8041C58780431C9B23D4A0028A2
:1039B00040F04C82394830F91110B5F8240100F17B
:1039C000C80E714502DD93F802A016E0C8388142A6
:1039D00003DA9B78C3F1000A0FE0012303FA08F32E
:1039E000304991F8002122EA0303029A81F800315C
:1039F00002F5FA73C9F8043066E292F8002142FA3F
:103A000008F2D30700F16082BAF1000FCCBF0220A8
:103A1000012001F085F87A1E132A00F24C82DFE8BB
:103A200012F014001E002B005B0070007700D40021
:103A300031018E01C101EB014A025B006600770093
:103A4000D4003101AA0007016401227802EB0A03C5
:103A5000FA2BA8BFFA2323EAE373237008E0627805
:103A600002EB0A03642BA8BF642323EAE3736370A9
:103A7000204601F057F91EE2E278204602EB0A03E5
:103A8000642BA8BF642323EAE373E370104B196827
:103A900001F004F90FE200BF20000020140E002006
:103AA000700D00207C0F0020880D0020890D002063
:103AB0008A0D0020D0180020200600201C060020BF
:103AC00060D60008440E0020B4180020A004002096
:103AD000940400205010002062795244642AA8BF48
:103AE000642222EAE2720D2F627100F0E4812279F1
:103AF00002EB0A03642BA8BF642323EAE373237158
:103B0000D9E1A27902EB0A0383F30803A371D2E19E
:103B1000A04A12681178022922D15046019205F07C
:103B20009DFA9D4905F0A2FB019A516A05F0E2F960
:103B30000021009005F084FC019ADDF800C050B926
:103B40006046964905F09AFC019ADDF800C020B164
:103B5000DFF848C201E04FF0000CC2F824C007E0D3
:103B600091785144C829A8BFC82121EAE171917018
:103B70000F2F00F0A081874A17683A78022A1AD1DD
:103B8000504605F06BFA844905F070FB396A05F080
:103B9000B1F90021824605F053FC38B950467F49FF
:103BA00005F06CFC20B1DFF8F4A101E04FF0000A51
:103BB000C7F820A07FE17A7802EB0A03C82BA8BFE0
:103BC000C82323EAE3737B7075E1724A12681178A7
:103BD000022922D15046019205F040FA6F4905F0C2
:103BE00045FB019A116B05F085F90021009005F065
:103BF00027FC019ADDF800C050B96046674905F01E
:103C00003DFC019ADDF800C020B1DFF890C101E071
:103C10004FF0000CC2F830C007E0117B5144C829B6
:103C2000A8BFC82121EAE1711173102F00F0438170
:103C3000584A17683A78022A1AD1504605F00EFA07
:103C4000564905F013FBF96A05F054F90021824644
:103C500005F0F6FB38B95046504905F00FFC20B18D
:103C6000DFF838A101E04FF0000AC7F82CA022E1EC
:103C7000FA7A02EB0A03C82BA8BFC82323EAE3732E
:103C8000FB7218E1434A12681178022922D150468A
:103C9000019205F0E3F9424905F0E8FA019AD16B87
:103CA00005F028F90021009005F0CAFB019ADDF823
:103CB00000C050B96046394905F0E0FB019ADDF8D3
:103CC00000C020B1DFF8D4C001E04FF0000CC2F812
:103CD0003CC007E0917D5144C829A8BFC82121EA12
:103CE000E1719175112F00F0E6802A4A17683A7841
:103CF000022A1AD1504605F0B1F9294905F0B6FA61
:103D0000B96B05F0F7F80021824605F099FB38B948
:103D10005046224905F0B2FB20B1DFF880A001E057
:103D20004FF0000AC7F838A0C5E07A7D02EB0A031D
:103D3000C82BA8BFC82323EAE3737B75BBE0154AF1
:103D400017683A78022A1AD1504605F087F91249C5
:103D500005F08CFAB96A05F0CDF80021824605F02D
:103D60006FFB38B950460D4905F088FB20B1DFF8EC
:103D70002CA001E04FF0000AC7F828A09BE0FA78D9
:103D800002EB0A03C82BA8BFC82323EAE373FB7026
:103D900091E000BF98040020000020410000C842CC
:103DA00000007A44AE4A17683A78022A1AD150467F
:103DB00005F054F9AB4905F059FA796B05F09AF81A
:103DC0000021824605F03CFB38B95046A54905F074
:103DD00055FB20B1DFF88CA201E04FF0000AC7F8D4
:103DE00034A068E07A7B02EB0A03C82BA8BFC82383
:103DF00023EAE3737B735EE0994A17683A78022AF4
:103E00001AD1504605F02AF9974905F02FFA396C76
:103E100005F070F80021824605F012FB38B95046D3
:103E2000904905F02BFB20B1DFF838A201E04FF0FC
:103E3000000AC7F840A03EE0FA7D02EB0A03C82B57
:103E4000A8BFC82323EAE373FB7534E0012832D10D
:103E500093F802E0854B33F91110B1F5617F05DB72
:103E600040F633039942B8BF0B4601E04FF461734B
:103E70000C2F20D14FF49660A3F5617390FBFEF0F8
:103E800093FBF0F092F80131C0B2834213D00328C3
:103E900094BF034602238BF8013107FB0353744A96
:103EA00003F2EE431360019000F056FF01980130D9
:103EB000C0B200F035FE012202FA08F26D4B93F811
:103EC00000110A4383F8002108F10108B8F1040F3A
:103ED00009F10C097FF444ADF2E43368D80510D53C
:103EE000654BDB786BB13B6899070AD5634B1B8840
:103EF00013F001060AD101F01DF9012000F02CFE9B
:103F000004E0012000F038FE012300E000232268D5
:103F100052070DD563B1012000F02EFE574B1B88D0
:103F20009B0708D401F006F9022000F015FE02E01C
:103F3000022000F021FE3B6813F00A0F26D0236810
:103F4000DF060BD54D4B1B885E070AD4042000F01A
:103F500003FE4B4B1A884B4B1A8002E0042000F002
:103F60000BFE2368980607D5444B1B88590606D4D8
:103F7000402000F0F1FD02E0402000F0FDFD23684C
:103F80005A0603D53E4B1A883F4B1A8023684FF4DC
:103F900080701B0502D500F0DFFD01E000F0ECFDB4
:103FA0006B79082B01D00E2B57D1402000F0E4FD97
:103FB00053E0012000E002205FFA80F909F1FF33AD
:103FC00085F8EC3402F0BEFC03F05EF8484600F0E1
:103FD000A7FD17E4B9F1000F03D0BAF17E0F3FF44B
:103FE0000FACBAF1970F7FF4D2AB284B4FF4C872E5
:103FF0001A8007E40022BAF1BB0F059201D1022317
:1040000004E0BAF1B70F04D14FF6FE73ADF81630E5
:104010000CE0BAF1BE0F01D1022305E0BAF1BD0FE9
:104020007FF4F0AB4FF6FE73ADF81430D8F80030E3
:10403000BDF81410B3F858200A44A3F85820BDF86E
:104040001610B3F85A200A44A3F85A2003F0B0F926
:1040500000238BF8CE30FFF7D5BB07B0BDE8F08F5B
:10406000980400200000C84200007A44140E00208A
:10407000440E00207C0F0020300F0020120600208C
:10408000C80D00200C0E0020200400205E0D002032
:10409000084BDA68D10709D4DA68520708D4DB681C
:1040A00013F0100F0CBF042003207047012070474D
:1040B000022070470020024030B5002213462149FB
:1040C00014180C5D83EA0423082413F4004F4FEA0C
:1040D000430318BF83F4815304F1FF3418BF83F006
:1040E000010314F0FF049BB2EFD10132192AE6D18B
:1040F00000F119028D5C00F11A028A5C02EB0522C4
:1041000092B29A421DD1104B1D782346DAB2AA42D0
:1041100014D2441C04EB4202D2B28C5C01328A5CA1
:1041200002EB0424A4B24FF4AF625443074A2413B1
:1041300004F5487422F813400133E7E7044B0122E9
:104140001A7030BD80100020CF030020A210002084
:10415000EC05002003788B4283BF034B03EB410146
:10416000488C0020704700BF8010002003788B42ED
:104170000AD9064B1A78064B53F8210002B14008C1
:1041800000F5777080B270470020704768170020F4
:10419000D404002007299ABF024B33F821000020E5
:1041A000704700BFCC050020024B33F81100C00857
:1041B000704700BF9405002008B5074B53F8210055
:1041C00004F048FF054904F09DFF054904F092FE04
:1041D00005F084F980B208BD080500200000203FEA
:1041E00000005C44014B33F811007047700400205C
:1041F000014B33F811007047F0050020014B33F8F4
:1042000011007047F0050020002070478C46654B78
:1042100065492DE9F04F1B684C899846220200231E
:104220004FF00009B8EB020869EB03098A88002700
:1042300016040A8989B0A2FB084502FB0955E20968
:1042400042EA4562B4184A884FEAE5134FEAC2369B
:10425000CA8847EB0305CDE90645A2FB084502FBEA
:104260000955220A42EA056216EB020A8A894FEAD8
:104270002523A8FB024502FB09554FEAD4524FF013
:10428000000742EA452247EB030B12F5FA664FEAB4
:10429000E55343F10007CDE90467B6F5FA6F77F10E
:1042A0000007019060DAA2FB026702FB03F107EB53
:1042B00041070521A6FB014501FB0755DDE906671E
:1042C00069104FEA3400361A67EB0107CDE906673B
:1042D000DDE90401A608354C46EA8576AF104FF0BB
:1042E000FF35BAEB060A6BEB070BA042A94128DAAF
:1042F000DDE9066740F6AC5412194FF0000543EBB8
:10430000050302FB03F1A2FB02236FF0060403EB9B
:104310004103514204FB0311A2FB044536190D442D
:104320004FF00B0147EB0507A2FB014501FB0355CD
:10433000CDE906676D104FEA3404BAEB040A6BEB63
:10434000050B08FB09F3DDE90401A8FB088909EB6B
:1043500043094FEAD87242EA49024FEAE973801AE8
:1043600061EB0301CDE90401114B019E1A68A2FB28
:104370000A4502FB0B55620D42EAC5226B15DDE9C9
:104380000645121B63EB0503D40B44EA434406B114
:104390003460BCF1000F02D0049FCCF8007009B06B
:1043A000BDE8F08F60130020A802002024FAFFFF70
:1043B00064130020016B0346C26810B5406941B127
:1043C000196C541A005D013918BF0A46C0B21A644C
:1043D00010BD196A405C0131914228BF0021C0B272
:1043E000196210BD036B13B15A68036C01E0C26916
:1043F000036A9A4237BFC068C3EB02008018C3EB60
:104400000000C0B27047436B13B190F8440070478E
:10441000826A436AD31A584258417047436A816A94
:1044200002698B4238BF9B185B1A416B21B1496806
:104430000B44511E8B4203D2013AD31AD8B27047B3
:1044400000207047334A10B5136C90681944081A5D
:1044500040F68C2398429160D060516013463CD95D
:10446000127893F945108A420BD1111F082908D8F8
:1044700093F84610182901D8013103E083F844204D
:1044800002E0002183F8461093F944108A421CD1BF
:10449000204991F84710C1B1002191421E4806DA27
:1044A00003EB8104246920F811400131F5E7511E26
:1044B00000EB41011630814203D0002421F8024F65
:1044C000F9E7164908780130087083F84520002282
:1044D00001211A7083F8471010BD92F84710B9B146
:1044E000A0F2EF2440F2DA518C4208D811780B295F
:1044F00005D80B1D0131117042F8230010BD0022B8
:1045000083F84720991804320020302A0861F9D135
:1045100010BD00BF00010020F0050020EE050020C6
:1045200010F80A3C0133DBB20A2B00F80A3C07D929
:1045300010F8131C034A002322F8113000F80A3C3B
:10454000704700BFF0050020024B1A6C0132114485
:104550001964704700010020024B53F820301B689B
:104560001980704728020020074BA1F57A7153F893
:1045700020304FF47A701A681B894B4393FBF0F399
:104580009BB21380704700BF2802002037B5104B44
:1045900004465D68187806216A46A847A8B19DF8C8
:1045A00000209DF80130012043EA022323809DF87A
:1045B00002209DF8033043EA022363809DF8042023
:1045C0009DF8053043EA0223A38003B030BD00BF4D
:1045D0009802002013B5104B04465B683B2006216F
:1045E0006A469847A8B19DF800209DF80130012047
:1045F00043EA022323809DF802209DF8033043EA1A
:10460000022363809DF804209DF8053043EA0223CD
:10461000A38002B010BD00BF980200201F4B10B550
:104620005A6802F00C02042A03D0082A04D01C4A5B
:1046300014E01C4A126811E05A685968C2F38342B8
:10464000C90302F1020201D4174906E0596811F4C6
:10465000003F1449096818BF49084A430260596875
:10466000124AC1F30311545C0168E14041605C6887
:10467000C4F30224145D21FA04F484605C68C4F37A
:10468000C224145DE140C1605B68C3F381331A4406
:10469000137CB1FBF3F1016110BD00BF00100240BB
:1046A00000127A000000002000093D009CD600089E
:1046B00010B50446FFF7ECFC012806D11CB1FFF74A
:1046C000E7FC013CF8E7052010BD002C08BF0520E1
:1046D00010BD7C4B70B51B78012B0CBF032500254A
:1046E00099BB048C24F001042404240C0484038B5F
:1046F000048C9BB223F0F30343F0010343EA051556
:10470000714BA4B2984215D003F50063984211D0C2
:10471000B0F1804F0ED0A3F5983398420AD003F53C
:104720008063984206D003F58063984218BF24F056
:104730000A0401D124F0020444F001042243058359
:104740000284038B23F00C033AE004293FD1048C4C
:104750005D4B24F010042404240C0484018B048C8D
:1047600021F440710905090D41F480719842A4B209
:1047700041EA053512D003F5006398420ED0B0F13E
:10478000804F0BD0A3F59833984207D003F5806390
:10479000984203D003F58063984207D124F02004A7
:1047A00044F0100444EA021292B204E024F0A0049F
:1047B00044F01004224305830284038B23F44063F6
:1047C0001B041B0C0383038B9BB2038370BD08295E
:1047D000018C37D121F480710904090C0184838B89
:1047E000048C9BB223F0F30343F0010343EA051565
:1047F000354BA4B2984212D003F5006398420ED014
:10480000B0F1804F0BD0A3F59833984207D003F551
:104810008063984203D003F58063984207D124F463
:10482000007444F4807444EA022292B204E024F456
:10483000206444F48074224385830284838B23F0B4
:104840000C0338E021F480510904090C0184838BA6
:10485000068C23F440731B051B0D43F4807343EA5D
:104860000535194BB6B2984212D003F50063984251
:104870000ED0B0F1804F0BD0A3F59833984207D0FB
:1048800003F58063984203D003F58063984207D113
:1048900026F4005646F4805646EA023292B205E00B
:1048A00047F6FF54344044F4805422438583028405
:1048B000838B23F440631B041B0C8383838B9BB289
:1048C000838370BDFC000020002C014038B510F837
:1048D0000E2C044650F8043C52B9012200F80E2C6C
:1048E00020F80C1C997A18680222BDE83840F0E6DE
:1048F00030F80C2C20F80A1C891A89B220F8081C00
:10490000074A10F80F0C002522F8101004F80E5C6E
:104910001868997A2A46FFF7DCFE04F8065C38BD71
:10492000F00500202DE9F8434D4B0C460168023A92
:10493000C3F83A108188D987062A05D8DFE802F043
:10494000080C12191E2226005A8F22809A8F0DE021
:104950009A8F22805A8F03E05A8F524222809A8F78
:10496000524203E09A8F524222805A8F6280DB8F3C
:1049700014E05A8F524222809A8F0CE09A8F228044
:104980005A8F08E05A8F22809A8F03E09A8F524202
:1049900022805A8F52426280DB8F5B42A380314B70
:1049A0001B78002B5AD1B4F9000004F057FB804665
:1049B000B4F9020004F052FB0746B4F9040004F015
:1049C0004DFB294D06462968404604F09BFBE968EB
:1049D0008146384604F096FB0146484604F08AFAC0
:1049E000A9698146304604F08DFB0146484604F033
:1049F00081FA07F0ABFA69682080404604F082FB38
:104A000029698146384604F07DFB0146484604F09A
:104A100071FAE9698146304604F074FB0146484664
:104A200004F068FA07F092FAA9686080404604F042
:104A300069FB69698046384604F064FB01464046DC
:104A400004F058FA296A0746304604F05BFB014639
:104A5000384604F04FFA07F079FAA080BDE8F883F1
:104A6000801000200400002070020020094B44F652
:104A7000FB711B681A7802EB421200FB0210597896
:104A80009B78C1EB0131B0FBF1F0B0FBF3F080B2E9
:104A9000704700BFD4030020054A00231370054A65
:104AA0001370054A1360054A1380054A1360704766
:104AB0005804002054040020500400205604002014
:104AC0004C04002000B9E7E700230B495A18595C51
:104AD000814203D00833802BF7D1704707490B6818
:104AE0001BB150785B78984205D20A60044A0023D3
:104AF0001380044A13607047B0D600084C040020AD
:104B00005604002050040020044B1A78510704D5A5
:104B100022F0040204201A70D4E77047CF18002056
:104B200010B540001428A8BF14200023094A02240D
:104B300002F140015C54234419441424834201F8D7
:104B4000014CF3DB1344FF2283F840200F20BDE823
:104B50001040B7E780100020064B10B51A881C469D
:104B600010439042188002D00120FFF7D9FF20881F
:104B700010BD00BF12060020064B10B51A881C4657
:104B800022EA00009042188002D00120FFF7C8FFFF
:104B9000208810BD12060020064B10B50446186888
:104BA000214603681B689847034B1B689A79544059
:104BB0009C7110BD640400206004002038B50446D8
:104BC00024200D46FFF7E8FF4D20FFF7E5FF002CFE
:104BD000084C0CBF3E202120FFF7DEFF2368002297
:104BE00028469A71FFF7D8FF236893F84900BDE87B
:104BF0003840D1E76004002001460020DEE710B510
:104C00000446C0B2FFF7C8FF200ABDE81040C3E762
:104C100010B5044680B2FFF7F2FF200CBDE810404B
:104C2000EDE7044B1B68DA79511CD9711344187AEB
:104C3000704700BF6004002010B5FFF7F2FF044684
:104C4000FFF7EFFF04EB002080B210BD30B50D4B35
:104C50000D4A1C6892F85630012B0ED8591C04EBF3
:104C6000C3039D88C9B2284203F1020303D082F82E
:104C70005610184630BD0B46EEE782F8563000203D
:104C800030BD00BFD400002080100020024B002265
:104C900083F85620DAE700BF801000202DE9F047A6
:104CA0008278C6781E4BC2F1640802EB820C544233
:104CB0005FFA88F84FEA4C0CC6F16409A4B203F11C
:104CC0001807A5B228B2002804DC002D14BF154631
:104CD000012500E0454600FB00FA6D430AFB06FA99
:104CE0009AFBF5F54D4468434FF00A0A90FBFAF041
:104CF000604480B258800D88B1F802A000B2C5EBC4
:104D00000A0A00FB0AF04FF47A7A90FBFAF00544A5
:104D100023F8025F0A34BB42A4B2D2D1BDE8F087C7
:104D20000604002010B544780078002303FB03F14B
:104D30001939614301F6C4115943414340F6C41285
:104D400091FBF2F1034A22F813100133072BEDD146
:104D500010BD00BFE003002010B50D4C2068FFF728
:104D6000E1FF20680023047A03FB03F11939614352
:104D700001F6C4115943192291FBF2F1054A22F8B8
:104D800013100133072BEFD1BDE81040024985E72E
:104D9000440E0020EE0300203007002010B50A4A20
:104DA0000A491368886800BF12689342F7D1084A1D
:104DB00011684FF47A7202FB01F4201AB0FBF1F093
:104DC00002FB030010BD00BFB418002010E000E09B
:104DD000B4000020F8B50746FFF7E0FF2B4E2C4C3F
:104DE000B36D2C4DC31AB3F5FA5FF365B06502D904
:104DF000002323702B7023781BB9A12F04BF01223D
:104E00002A702A781AB1FFB2F75401332370224B6B
:104E100021781A781F46914236D1204B1B78052BFA
:104E200002D0062B03D02CE00020FFF745F9737861
:104E30001E2B26D13878002201381346D1B2814288
:104E400019DA775C19463B46082781EA030C1CF007
:104E5000010F1CBF83F01803C3F3460307F1FF37AC
:104E60000CBF5B0843F0800317F0FF07C1F3470155
:104E7000EBD10132E2E7325C934202D10320FFF72B
:104E80001BF900232B702370F8BD00BF8010002099
:104E9000CD030020CC030020CE030020D00300204F
:104EA00010B50446FFF77AFF0D4B41F288311A6EB8
:104EB0001866821A8A425A6684BF002283F86820E4
:104EC00093F86830074AE4B20F2BD45403D1064B51
:104ED00001221A7010BD024A013382F8683010BDF9
:104EE00080100020C1040020B804002010B5044642
:104EF000FFF754FF0D4B41F28831DA6ED866821A03
:104F00008A421A6784BF002283F8742093F87430B1
:104F1000074A142BD45403D1064B01221A7010BD3A
:104F2000024A013382F8743010BD00BF80100020A7
:104F3000B5050020B405002010B50446FFF72EFF8C
:104F4000244A936F9067C31AB3F57A6F84BF002326
:104F500082F87C3092F87C3033B9A82C39D11E49C4
:104F60000B701E490B8006E0022B02D11C490C700D
:104F700001E0242B01D81B49CC540133DBB282F869
:104F80007C30174A127802325200934217DA134AE1
:104F9000E0B2138883EA0020082310F4004F4FEAA0
:104FA000400018BF80F4815003F1FF3318BF80F038
:104FB000010013F0FF0380B2EFD1108010BD013269
:104FC000934206D1034B002283F87C20024B01223E
:104FD0001A7010BD80100020690500206C050020AB
:104FE0006A0500206E05002010B50446FFF7D6FEC6
:104FF0000F4B40F6AC51D3F88020821A8A42C4BFCE
:10500000002283F8842093F884200A498C5422B922
:105010000F2C0CD10649C1F880000132D2B283F8BE
:105020008420192A044B0CBF012200221A7010BDE3
:1050300080100020500500200405002038B50446EB
:10504000FFF7ACFE0546FFF7A9FE401BA042FAD3CE
:1050500038BD10B504462CB14FF47A70FFF7EEFF5F
:10506000013CF8E710BD054A08B5536823B192F931
:105070000020824200D1984708BD00BFB800002040
:10508000174B2DE9F0410746188890460C4603F06F
:10509000E1FF144904F036F80646404603F0DEFF0F
:1050A000114904F02FF801464FF07E5004F0DEF86D
:1050B000314603F01FFF0146304604F0D7F825685B
:1050C00006462946384603F013FF0146304604F0F1
:1050D00019F80146284603F00DFF2060BDE8F08175
:1050E000DC0D0020BD378635DB0FC94001380A4B87
:1050F000042804D8DFE800F00507090B0D00074A73
:1051000008E0074A06E0074A04E0074A02E0074AC7
:1051100000E0074A1A6070473C000020117900083F
:10512000356E0008E96A0008A97E00089D7B00082A
:10513000055F0008044B00221A605A60034B0022EE
:105140001A605A60704700BFF812002064120020F5
:1051500080EAE073A3EBE0738B4206DB002801DDFD
:10516000401A704702D0084470470020704770B55D
:10517000044604F08DF92030402857D820462C49A9
:1051800004F07CF928B120462A4903F0B1FE044618
:10519000F4E72046284904F053F928B12046254970
:1051A00003F0A8FE0446F4E72046244904F066F91B
:1051B00030B12249204603F09BFE01461F480AE019
:1051C00020461F4904F03CF940B11C49204603F039
:1051D00091FE01461A4803F08BFE04462146204604
:1051E00003F090FF05462946204603F08BFF154942
:1051F0000646284603F086FF134903F079FE014670
:10520000284603F07FFF114903F074FE014628464B
:1052100003F078FF0E4903F06BFE0146304603F0C1
:1052200071FF0146204603F065FE70BD002070BD91
:10523000DB0F4940DB0FC940DB0F49C0DB0FC93F23
:10524000DB0FC9BF9A7C2E36FAAF4F393587083C41
:10525000A4AA2A3E024B9A6822EA0000986070478E
:10526000600600202DE9F041038A87890446BFB219
:105270000D461F40002F36D0B7FA87F34FF000429B
:10528000DA40D24391B21B3B21821740042BF1D864
:10529000DFE803F0221F1C1903006B6A33B103F12E
:1052A000FF3800231FFA88F86B6203E0B4F82C8003
:1052B0001FFA88F82E6A002EDCD03368304641464B
:1052C00098477668F7E72868A18E08E06868218F1C
:1052D00005E0A868A18F02E0E868B4F84010036810
:1052E00089B29847C6E7BDE8F0810C4B800A984226
:1052F0000CD003D8B0F5801F0ED00BE0084B9842BD
:1053000006D04933984205D10020704702207047EB
:1053100003207047FE2070470120704701001000F5
:10532000020010002DE9F0410F88002347FA03F234
:10533000D2072BD58A7803F0070512F0100F18BF9B
:1053400091F803C002F00F0618BF46EA0C06AD0044
:105350004FF00F0C0CFA05FC06FA05F5DC0850F8C6
:105360002480282A28EA0C0C45EA0C0540F8245031
:1053700005D101229A40C46824EA020205E0482AC5
:1053800004D101229A40C4682243C2600133102B29
:10539000CCD1BDE8F08100BFF0B5884C884A2368C5
:1053A0009D8AADB2E9B211F0010F32D0198821F413
:1053B00000610904090C1980198889B241F48061DF
:1053C0001980002111707F4908787F49A8B1507871
:1053D00018B97E480078FF280FD1012050707C4812
:1053E0000078022804D1188880B240F40060188048
:1053F000097841F00101198202E1097801F0FE010A
:105400001982724B1B78FF2B00F0FA80FF23137078
:10541000F6E08F073CD5BFF35F8F6D490878C0B2C7
:10542000012814D1674D2D788DB155787DB119883B
:1054300021F480610904090C1980BFF35F8F198B77
:105440001988907089B241F4007119801BE0188BA3
:10545000BFF35F8F087802280BD15A48007840B11B
:10546000507830B1198821F480610904090C198041
:10547000C0E00978032906D15249097819B1517859
:10548000002940F0B780998889B241F48061B6E084
:105490004E075BD5012191704A49097800293AD01D
:1054A0005178002937D04A4910780978494D0229A6
:1054B00019881ED921F480610904090C19801F8AFA
:1054C0002E68C1B2FFB240B23754188880B240F49F
:1054D000007018808B1C1370236828681D8A0131A6
:1054E00049B2EDB24554998889B241F480619980FE
:1054F00027E089B241F4007119801E8A2D68C1B27B
:10550000F6B240B22E541B8A481C40B2DBB20331C3
:105510002B54117015E0517811B92F49097841B118
:10552000198889B241F4007119801378013313701E
:1055300007E0198889B241F480711980204B01215C
:10554000597021680B88D805FCD459E001F040015E
:1055500001F0FF061E48F1B11E49B3F810C00F68F4
:1055600011785FFA8CFCCDB26E1C49B2F6B207F826
:1055700001C01670077876B2F11C8F4205D1998868
:1055800021F480610904090C99800378B34237D172
:105590000235157034E0290632D511784DB26F1CF2
:1055A0001ED00E4E01313668C9B2755D1170EDB274
:1055B0001D82007849B2884222D11BE048130020A6
:1055C00008110020501300204D1300204E1300201E
:1055D0005C130020581300204F13002054130020A8
:1055E000134916700978C9B219821249097809B9A4
:1055F000017829B9998821F480610904090C9980FE
:105600000D4B92F9001018780C4B421C91420DD1B1
:1056100000225A709B7833B12268938823F4407338
:105620001B041B0C9380064B00221A70F0BD00BFB8
:105630004E130020501300205C130020081100209E
:105640005D1300202DE9F74F7B4B5A787B4B33F8E5
:1056500012607B4BB6B21E807A4BB3F90A209A4691
:105660000A2A1CBF00238AF808309AF80840754BB4
:10567000002C5ED1744A7549DA605A614FF07E524F
:105680009A61734A1961DA61724A1A6240F2DC5215
:10569000DA651022A3F85A201822A3F858206E4D7C
:1056A0004FF097412F19386903F02CFD00218046F7
:1056B00003F0C6FE28B140464FF07C5103F018FCC1
:1056C00004E040464FF07C5103F014FC03F042FF2D
:1056D00005EB4405C5E90E0178684FF0974103F0EA
:1056E00011FD0021074603F0ABFE28B138464FF00C
:1056F0007C5103F0FDFB04E038464FF07C5103F091
:10570000F9FB03F027FF04340C2CC5E90801C6D1CE
:105710000A23AAF80A30A6F2DC531B04CAF8783030
:10572000CAF88430CAF87C30CAF8883001238AF875
:105730000830DAF85CC0BAF95AB0CCEB060606FAC3
:105740000BF6DAF82C10DAF8284071434FEAE679C4
:10575000DAF8780004FB0911CAF87860A4FB066740
:10576000DAF884500F44DAF84C10DAF8484069430C
:105770004FEAE579DAF8882004FB0911CAF8885065
:10578000A4FB05450D44DAF83410341B67EB05051E
:105790004143DAF830604FEAE079DAF87C3006FB12
:1057A0000917CAF87C00A6FB00010019DAF854407A
:1057B000DAF8506002FB04F439444FEAE27706FB62
:1057C0000744A6FB02672744DAF83C40CAF88C205D
:1057D00003FB04F4DAF8382041EB0501DD17CAF8C1
:1057E000803002FB0544A2FB0323801B61EB070111
:1057F0002344801841EB0301BAF95820CDF804C0C6
:1058000003F064FB0BF1FF33012202FA03F3CAF841
:105810008400C01841EBE3715A4603F057FBDDF8F2
:1058200004C010EB0C0080B2FFF720F90B4B18807E
:1058300003B0BDE8F08F00BF5802002068020020CE
:105840002A0400200811002056157D395615FD390F
:105850006350FABF0CE0743F1011002028040020B0
:10586000826A8169436B1144D960416A914203D9CC
:105870008A1A5A60816204E001698A1A5A60002219
:105880008262002280F844201A6842F001021A6005
:1058900070470D4B0278D9684378C943C1F30221A0
:1058A000C1F1040103FA01F1084B0901C9B21A441C
:1058B00082F8001302780120510902F01F0200FA59
:1058C00002F243F82120704700ED00E000E100E023
:1058D000254B10B55343254A254C12680139B2FBBC
:1058E000F3F20388013AA04289B292B29BB212D07D
:1058F00004F50064A0420ED0B0F1804F0BD0A4F5A7
:105900009834A04207D004F58064A04203D004F587
:105910008064A04202D123F070039BB2154CA042D8
:1059200006D004F58064A0421CBF23F440739BB2F0
:1059300003800F4B8185984202850FD003F50063E9
:1059400098420BD003F54063984207D003F580637B
:10595000984203D003F58063984201D10023038667
:105960000123838210BD00BF40420F003800002099
:10597000002C0140001000402DE9F74FA34F0C46CA
:1059800097F8906005461146006891469B4622466E
:10599000731C87F89030FFF79BFF2B896868ADF880
:1059A000043018238DF8063001A902238DF8073042
:1059B000FFF7B8FCAB7A9437360107EB060A2C6880
:1059C0000C2B00F2F280DFE813F00D00F000F00085
:1059D000F0004D00F000F000F0008200F000F00058
:1059E000F000B600238C8A4823F001031B041B0C33
:1059F0002384218CA288238B844223F073034FEAF3
:105A000003434FEA134389B292B243F0700314D0B8
:105A100000F50060844210D000F5406084420CD054
:105A200000F58060844208D000F58060844204D094
:105A300021F0020141F0030107E021F00E0122F400
:105A4000407241F0030142F48072A2802383A4F8E3
:105A500034B02184238B23F008031B041B0C43F078
:105A6000080332E0238C6A4823F010031B041B0C4C
:105A70002384218CA288238B844223F4E6434FEABB
:105A800003434FEA134389B292B243F4E04308D090
:105A900000F50060844204D021F0200141F0300183
:105AA00007E021F0E00122F4406241F0300142F4CD
:105AB0008062A2802383A4F838B02184238B23F44E
:105AC00000631B041B0C43F4006323836DE0238CF1
:105AD0004F4823F480731B041B0C2384218CA28861
